{
  "contractName": "Day1Registry",
  "abi": [
    {
      "constant": true,
      "inputs": [
        {
          "internalType": "uint256",
          "name": "",
          "type": "uint256"
        }
      ],
      "name": "day1_users",
      "outputs": [
        {
          "internalType": "string",
          "name": "name",
          "type": "string"
        },
        {
          "internalType": "string",
          "name": "surname",
          "type": "string"
        },
        {
          "internalType": "address",
          "name": "added_by",
          "type": "address"
        }
      ],
      "payable": false,
      "stateMutability": "view",
      "type": "function"
    },
    {
      "constant": false,
      "inputs": [
        {
          "internalType": "string",
          "name": "_name",
          "type": "string"
        },
        {
          "internalType": "string",
          "name": "_surname",
          "type": "string"
        }
      ],
      "name": "registerUser",
      "outputs": [
        {
          "internalType": "uint256",
          "name": "",
          "type": "uint256"
        }
      ],
      "payable": false,
      "stateMutability": "nonpayable",
      "type": "function"
    },
    {
      "constant": true,
      "inputs": [],
      "name": "getNumberOfUsers",
      "outputs": [
        {
          "internalType": "uint256",
          "name": "",
          "type": "uint256"
        }
      ],
      "payable": false,
      "stateMutability": "view",
      "type": "function"
    }
  ],
  "bytecode": "0x608060405234801561001057600080fd5b50610676806100206000396000f3fe608060405234801561001057600080fd5b50600436106100415760003560e01c80631d2e4afd146100465780634d00928814610128578063c2a502a314610146575b600080fd5b6101126004803603604081101561005c57600080fd5b810190808035906020019064010000000081111561007957600080fd5b82018360208201111561008b57600080fd5b803590602001918460018302840111640100000000831117156100ad57600080fd5b9091929391929390803590602001906401000000008111156100ce57600080fd5b8201836020820111156100e057600080fd5b8035906020019184600183028401116401000000008311171561010257600080fd5b909192939192939050505061028c565b6040518082815260200191505060405180910390f35b610130610409565b6040518082815260200191505060405180910390f35b6101726004803603602081101561015c57600080fd5b8101908080359060200190929190505050610415565b6040518080602001806020018473ffffffffffffffffffffffffffffffffffffffff1673ffffffffffffffffffffffffffffffffffffffff168152602001838103835286818151815260200191508051906020019080838360005b838110156101e85780820151818401526020810190506101cd565b50505050905090810190601f1680156102155780820380516001836020036101000a031916815260200191505b50838103825285818151815260200191508051906020019080838360005b8381101561024e578082015181840152602081019050610233565b50505050905090810190601f16801561027b5780820380516001836020036101000a031916815260200191505b509550505050505060405180910390f35b60008060016000604051806060016040528089898080601f016020809104026020016040519081016040528093929190818152602001838380828437600081840152601f19601f82011690508083019250505050505050815260200187878080601f016020809104026020016040519081016040528093929190818152602001838380828437600081840152601f19601f8201169050808301925050505050505081526020013373ffffffffffffffffffffffffffffffffffffffff1681525090806001815401808255809150509060018203906000526020600020906003020160009091929091909150600082015181600001908051906020019061039392919061059c565b5060208201518160010190805190602001906103b092919061059c565b5060408201518160020160006101000a81548173ffffffffffffffffffffffffffffffffffffffff021916908373ffffffffffffffffffffffffffffffffffffffff160217905550505003905080915050949350505050565b60008080549050905090565b6000818154811061042257fe5b9060005260206000209060030201600091509050806000018054600181600116156101000203166002900480601f0160208091040260200160405190810160405280929190818152602001828054600181600116156101000203166002900480156104ce5780601f106104a3576101008083540402835291602001916104ce565b820191906000526020600020905b8154815290600101906020018083116104b157829003601f168201915b505050505090806001018054600181600116156101000203166002900480601f01602080910402602001604051908101604052809291908181526020018280546001816001161561010002031660029004801561056c5780601f106105415761010080835404028352916020019161056c565b820191906000526020600020905b81548152906001019060200180831161054f57829003601f168201915b5050505050908060020160009054906101000a900473ffffffffffffffffffffffffffffffffffffffff16905083565b828054600181600116156101000203166002900490600052602060002090601f016020900481019282601f106105dd57805160ff191683800117855561060b565b8280016001018555821561060b579182015b8281111561060a5782518255916020019190600101906105ef565b5b509050610618919061061c565b5090565b61063e91905b8082111561063a576000816000905550600101610622565b5090565b9056fea265627a7a723158201b86c71bae5bea9231b1dc4d509b650de7fd14eafac23c0ccbc3b6f4f674798564736f6c63430005100032",
  "source": "pragma solidity ^0.5.16;\r\ncontract Day1Registry {\r\n\r\n  // define the struct Day1User\r\n  struct Day1User {\r\n    string name;\r\n    string surname;\r\n    address added_by;\r\n  }\r\n\r\n  // define the array of users\r\n  Day1User[] public day1_users;\r\n\r\n  function registerUser(string calldata _name, string calldata _surname) external returns(uint){\r\n    // get an instance of a Day1User using the input variables and push into the array of day1_users, returns the id\r\n    uint id = day1_users.push(Day1User(_name, _surname, msg.sender)) - 1;\r\n    \r\n    // return the user id\r\n    return id;\r\n  }\r\n\r\n  function getNumberOfUsers() external view returns(uint) {\r\n    // return the length of the day1_users array\r\n    return day1_users.length;\r\n  }\r\n\r\n}",
  "sourcePath": "C:/Users/titos/OneDrive/Documents/Mphil Fintech 2021/Julian Tutorials/cvt/contracts/Day1Registry.sol",
  "compiler": {
    "name": "solc",
    "version": "0.5.16+commit.9c3226ce.Emscripten.clang"
  },
  "schemaVersion": "3.3.4",
  "updatedAt": "2021-06-02T23:24:05.304Z",
  "devdoc": {
    "methods": {}
  },
  "userdoc": {
    "methods": {}
  }
}